:020000040800F2
:1000000000000220FD210008510B0008530B0008DE
:10001000550B0008570B0008590B000800000000A2
:100020000000000000000000000000005B0B000862
:100030005D0B0008000000005F0B0008610B00086A
:100040004D2200084D2200084D2200084D220008D4
:100050004D2200084D2200084D2200084D220008C4
:100060004D2200084D2200084D2200084D220008B4
:100070004D2200084D2200084D2200084D220008A4
:100080004D2200084D2200084D2200084D22000894
:100090004D2200084D2200084D220008690B00087F
:1000A0004D2200084D2200084D2200084D22000874
:1000B0004D2200084D2200084D2200084D22000864
:1000C0004D2200084D2200084D2200084D22000854
:1000D0004D2200084D2200084D2200084D22000844
:1000E0004D2200084D2200084D2200084D22000834
:1000F0004D2200084D2200084D2200084D22000824
:100100004D2200084D2200084D2200084D22000813
:100110004D2200084D2200084D2200084D22000803
:100120004D2200084D2200084D2200084D220008F3
:100130004D2200084D2200084D2200084D220008E3
:100140004D2200084D2200084D2200084D220008D3
:100150004D2200084D2200084D2200084D220008C3
:100160004D2200084D2200084D2200084D220008B3
:100170004D2200084D2200084D220008000000001A
:080180004D2200084D22000889
:1001880010B5054C237833B9044B13B10448AFF3C9
:1001980000800123237010BD0C0000200000000027
:1001A800A822000808B5034B1BB103490348AFF365
:1001B800008008BD0000000010000020A8220008F0
:1001C80053B94AB9002908BF00281CBF4FF0FF31B6
:1001D8004FF0FF3000F072B9ADF1080C6DE904CEB4
:1001E80000F006F8DDF804E0DDE9022304B070470A
:1001F8002DE9F047089E04468846002B4BD18A42D9
:10020800154667D9B2FA82F24AB1C2F1200701FA5B
:1002180002F320FA07F7954047EA030894404FEAAB
:10022800154E230CB8FBFEF71FFA85FC0EFB17884A
:1002380043EA084307FB0CF1994209D9EB1807F187
:10024800FF3080F01B81994240F21881023F2B4415
:100258005B1AA4B2B3FBFEF00EFB103344EA03446E
:1002680000FB0CFCA44509D92C1900F1FF3380F0E0
:100278000781A44540F2048102382C4440EA074033
:10028800A4EB0C0400271EB1D4400023C6E90043A8
:100298003946BDE8F0878B4209D9002E00F0EB8083
:1002A8000027C6E9000138463946BDE8F087B3FAA9
:1002B80083F7002F47D18B4202D3824200F2FA80A3
:1002C800841A61EB030301209846002EE0D0C6E9AA
:1002D8000048DDE702B9FFDEB2FA82F2002A40F0F8
:1002E8008F80491B4FEA154E1FFA85F80127B1FB8D
:1002F800FEFC230C0EFB1C1143EA014308FB0CF126
:10030800994207D9EB180CF1FF3002D2994200F25A
:10031800CD808446591AA3B2B1FBFEF00EFB10142F
:1003280043EA044408FB00F8A04507D92C1900F15A
:10033800FF3302D2A04500F2B6801846A4EB0804A9
:1003480040EA0C409FE7C7F1200CBB4022FA0CFEA4
:100358004EEA030E01FA07F420FA0CF521FA0CF321
:100368004FEA1E482543B3FBF8F92C0C08FB193358
:100378001FFA8EFA44EA034309FB0AF49C4202FA84
:1003880007F200FA07F10BD91EEB030309F1FF305E
:1003980080F087809C4240F28480A9F1020973446E
:1003A8001B1BADB2B3FBF8F008FB103345EA03445E
:1003B80000FB0AFAA24508D91EEB040400F1FF333A
:1003C8006BD2A24569D90238744440EA0940A0FBBF
:1003D8000289A4EB0A044C45C2464B4654D351D07B
:1003E800002E69D0B1EB0A0564EB030404FA0CFC97
:1003F800FD40FC404CEA0505C6E90054002747E7E4
:10040800C2F1200320FA03F7954001FA02F021FA1D
:1004180003F34FEA154E3843010CB3FBFEF71FFAFE
:1004280085F80EFB173341EA034107FB08F38B42BB
:1004380004FA02F407D9691807F1FF3C2FD28B425E
:100448002DD9023F2944CB1A81B2B3FBFEF00EFB33
:10045800103341EA034100FB08F38B4207D96918BE
:1004680000F1FF3C17D28B4215D902382944C91A2A
:1004780040EA07473BE73746304609E70746E7E6DD
:100488001846FBE64145ABD2B8EB020A69EB0E020F
:1004980001381346A4E76046E9E7184695E767463A
:1004A800D1E781467CE702382C4447E7ACF1020CDF
:1004B8002B442FE7384608E73746E9E6704700BF80
:1004C80030B58BB0002405940694079408940994D9
:1004D8000194274B1A6B42F001021A631A6B02F05F
:1004E80001020192019A02941A6B42F008021A63FF
:1004F8001A6B02F008020292029A03941A6B42F0F5
:1005080004021A631A6B02F004020392039A049419
:100518001A6B42F002021A631B6B03F00203049386
:10052800049B144D22464CF28001284600F034FD0D
:100538004CF280030593012306930794089405A9B8
:10054800284600F045FC4FF4407305930A4B069388
:10055800079405A9094800F03BFC224621461720CC
:1005680000F0DEFB172000F00FFC0BB030BD00BF21
:1005780000380240000C0240000011100008024040
:1005880010B594B03022002108A801F081FE0024A3
:10059800039404940594069407940194154B1A6CDB
:1005A80042F080521A641B6C03F080530193019B44
:1005B8000294114B1A6842F480421A601B6803F4D3
:1005C80080430293029B0223089301230B93102379
:1005D8000C930E9408A800F0FDFC0F2303930494D9
:1005E800059406940794214603A800F03DFF14B033
:1005F80010BD00BF003802400070004070B5C2B0A6
:1006080000F03CFBFFF7BCFFFFF75AFF00F070F863
:1006180000F0BEFA00F084F9002000F0ABF94FF4C6
:100628000041304800F0BEFC52E0642301220DF185
:1006380007012D4801F0F8FC9DF807301A2B1BD054
:10064800642301220DF10701274801F05EFD00280F
:10065800F2D19DF8073002AA13550134E4B20A2BEF
:10066800E3D13146104600F0D5F906F580718EB217
:100678000135EDB20024D8E7002411E0210202A8D8
:1006880000F016FA00220132D2B202AB9B5C0A2BB0
:10069800F9D1642302A9144801F0C6FC0134E4B27C
:1006A800AC42EBD31A238DF807300F4C0A230122F2
:1006B8000DF10701204601F0B7FC00F07BF98DF839
:1006C80006000A2301220DF10601204601F0ACFCC8
:1006D80000F08AF900218DF807100D460C460E46E9
:1006E800AEE700BF000C0240A800002070470000E1
:1006F80008B50E480E4B03604FF482734360002325
:100708008360C360036143614FF4007282612022F9
:10071800C2610362436283620A23C36201F042F842
:1007280000B908BDFFF7E2FFFBE700BF2800002083
:1007380000300140F0B589B000230393049305937A
:100748000693079302681E4B9A4201D009B0F0BD88
:100758000024009403F584335A6C42F480525A649E
:100768005A6C02F480520092009A01941A6B42F07B
:1007780001021A631A6B02F001020192019A0294B3
:100788001A6B42F002021A631B6B03F00203029316
:10079800029B202303930227049703260696052528
:1007A800079503A9074800F013FB30230393049728
:1007B80005940696079503A9034800F009FBC5E7C9
:1007C80000300140000002400004024000B587B03C
:1007D8008DF80F000A23009301230DF117020DF184
:1007E8000F01044801F0EBF89DF8170007B05DF819
:1007F80004FB00BF28000020F8B5114D002280211D
:10080800284600F0C9FB9F20FFF7E0FF0020FFF714
:10081800DDFF07460020FFF7D9FF04460020FFF759
:10082800D5FF064601228021284600F0B5FB0120AD
:1008380000F050FA200240EA07403043F8BD00BFFC
:10084800000C024010B5094C00228021204600F01F
:10085800A3FB0620FFF7BAFF01228021204600F003
:100868009BFB012000F036FA10BD00BF000C0240CF
:1008780010B5094C00228021204600F08DFB042091
:10088800FFF7A4FF01228021204600F085FB01200C
:1008980000F020FA10BD00BF000C024008B500228D
:1008A8008021124800F078FB0520FFF78FFF002019
:1008B800FFF78CFF0E4B83F8240008E0012000F0BE
:1008C80009FA0020FFF782FF094B83F82400084B40
:1008D80093F8243013F0010FF0D10122802103484E
:1008E80000F05AFB012000F0F5F908BD000C0240A9
:1008F8008000002010B5094C00228021204600F01D
:100908004BFB5020FFF762FF01228021204600F0B8
:1009180043FB012000F0DEF910BD00BF000C0240CF
:1009280008B501228021114800F036FB642000F050
:10093800D1F9FFF761FF42F24153184202D00C4B44
:100948002022DA610A4B4FF480721A814FF48052E8
:100958001A61DA69110159611204110AD9604FF458
:1009680080319961920A1A62012008BD000C024088
:100978008000002038B50546FFF7BCFF0B4C00226D
:100988008021204600F008FB0120FFF71FFF084BDD
:1009980083F824502846FFF719FF012280212046BA
:1009A80000F0FAFAFFF77AFF38BD00BF000C0240EA
:1009B8008000002038B50B4C00228021204600F032
:1009C800EBFA0520FFF702FF0020FFF7FFFE0546C0
:1009D80001228021204600F0DFFA012000F07AF998
:1009E800284638BD000C024010B5FFF72BFF084C15
:1009F80000228021204600F0CFFAC720FFF7E6FE4C
:100A080001228021204600F0C7FAFFF747FF10BDFA
:100A1800000C024070B50646224B1C8901FB04F409
:100A2800FFF710FF204D00228021284600F0B4FA7D
:100A3800AD20FFF7CBFEC4F30740FFF7C7FEC4F3B2
:100A48000720FFF7C3FEE0B2FFF7C0FE0A23022229
:100A58003146164800F0E6FE01228021284600F0C3
:100A68009BFA012416E0104D00228021284600F050
:100A780093FAAD20FFF7AAFE0A23022206EB4401EF
:100A88000A4800F0CFFE01228021284600F084FAAF
:100A98000134E4B214F0800FE5D0FFF7E9FEFFF768
:100AA800FDFE70BD80000020000C024028000020E0
:100AB80070B50646134B1C8901FB04F4124D002245
:100AC8008021284600F068FA0320FFF77FFEC4F370
:100AD8000740FFF77BFEC4F30720FFF777FEE0B27D
:100AE800FFF774FE64234FF480723146074801F023
:100AF8007DF801228021284600F04EFA012000F0FE
:100B0800E9F870BD80000020000C02402800002099
:100B180082B0002100910B4B5A6C42F480425A6417
:100B28005A6C02F480420092009A01911A6C42F0C9
:100B380080521A641B6C03F080530193019B02B02E
:100B4800704700BF003802407047FEE7FEE7FEE747
:100B5800FEE770477047704708B500F0A9F808BD70
:100B680008B54FF4807000F027FA4FF4007000F0D9
:100B780023FA08BD054BD3F8882042F47002C3F865
:100B880088204FF000629A60704700BF00ED00E0D7
:100B980008B50A480A4B03604FF4E1334360002369
:100BA8008360C36003610C2242618361C36101F009
:100BB8000CFA00B908BDFFF799FDFBE7A800002073
:100BC8000048004000B589B00023039304930593BF
:100BD800069307930268154B9A4202D009B05DF854
:100BE80004FB0021019103F5F8331A6C42F48022CA
:100BF8001A641A6C02F480220192019A02911A6B0B
:100C080042F008021A631B6B03F008030293029B6D
:100C18004FF440730393022304930323069307239B
:100C2800079303A9024800F0D3F8D7E7004800402B
:100C3800000C024010B504460E4B18784FF47A7336
:100C4800B3FBF0F30C4A1068B0FBF3F000F0AAF81D
:100C580068B90F2C01D901200AE0002221464FF083
:100C6800FF3000F05DF8034B5C60002000E00120DD
:100C780010BD00BF040000200000002008B50B4B89
:100C88001A6842F400721A601A6842F480621A60A4
:100C98001A6842F480721A60032000F02FF80020CE
:100CA800FFF7C8FFFFF734FF002008BD003C0240F3
:100CB800034A1168034B1B780B441360704700BF4D
:100CC800E800002004000020014B1868704700BFAE
:100CD800E800002038B50446FFF7F6FF0546B4F1F2
:100CE800FF3F02D0044B1B781C44FFF7EDFF401B6D
:100CF800A042FAD338BD00BF04000020074AD368D9
:100D080023F4E0631B041B0C000200F4E0601843AA
:100D180040F0BF6040F40030D060704700ED00E064
:100D280030B4174BDB68C3F30223C3F10704042C68
:100D380028BF04241D1D062D18D9033B4FF0FF358D
:100D480005FA04F421EA0401994005FA03F322EABA
:100D58000303194300280BDB0901C9B200F1604005
:100D680000F5614080F8001330BC70470023E5E7C8
:100D780000F00F000901C9B2024B1954F4E700BF93
:100D880000ED00E014ED00E0002807DB00F01F0292
:100D9800400901239340024A42F82030704700BFBF
:100DA80000E100E00138B0F1807F0AD2064B5860BC
:100DB800064AF02182F823100020986007221A6062
:100DC80070470120704700BF10E000E000ED00E030
:100DD80000230F2B00F2D780F0B583B039E007224B
:100DE80000E00022AA403A430234674D45F8242027
:100DF800664A1468F24302EA04054F6817F4803F14
:100E080001D046EA0405614C2560646802EA0405DD
:100E18004F6817F4003F01D046EA04055B4C656053
:100E2800A46802EA04054F6817F4801F01D046EA57
:100E38000405564CA560E46822404D6815F4001F6F
:100E480001D046EA0402514CE26001330F2B00F254
:100E5800988001229A400C6804EA0206B242F4D152
:100E68004C68651E012D03D9112C01D0122C12D10A
:100E780085685F000324BC4025EA0405CC68BC40B3
:100E88002C438460456825EA02054C68C4F30012C7
:100E98009A402A434260C4685F000322BA40D243A2
:100EA80014408D68BD402543C5604C68022C01D0B4
:100EB800122C13D1DD08083550F825E003F007049B
:100EC8004FEA840C0F2404FA0CF42EEA040E0C6981
:100ED80004FA0CF444EA0E0440F825400468224061
:100EE8004C6804F00304BC40224302604A6812F0D4
:100EF800805FAAD000220192254A546C44F48044B1
:100F08005464526C02F480420192019A9C08A51C18
:100F18001D4A52F8257003F0030295000F22AA40DB
:100F280027EA02071B4A90423FF45BAF02F5806252
:100F380090421AD002F58062904218D002F5806281
:100F4800904216D002F58062904214D002F5806279
:100F5800904212D002F58062904210D002F5806271
:100F680090423FF43CAF08223CE701223AE70222D4
:100F780038E7032236E7042234E7052232E706225F
:100F880030E703B0F0BD704700380140003C014035
:100F9800003802400000024012B90904816170471C
:100FA80081617047436931EA030301D08161704769
:100FB800090481617047704708B5054B5B690342B6
:100FC80000D108BD024B5861FFF7F5FFF9E700BFF4
:100FD800003C0140002800F0E48170B582B004466E
:100FE800036813F0010F3BD0A74B9B6803F00C0379
:100FF800042B2CD0A44B9B6803F00C03082B21D0A6
:101008006368B3F5803F4FD0B3F5A02F52D09E4B05
:101018001A6822F480321A601A6822F480221A6050
:101028006368002B50D0FFF74FFE0546964B1B68B0
:1010380013F4003F14D1FFF747FE401B6428F5D98D
:101048000320B3E1904B5B6813F4800FD8D08E4B2C
:101058001B6813F4003F03D06368002B00F0A381E2
:10106800236813F0020F55D0874B9B6813F00C0FC1
:101078003ED0854B9B6803F00C03082B33D0E36804
:10108800002B68D0814B01221A60FFF71DFE054630
:101098007D4B1B6813F0020F54D1FFF715FE401B60
:1010A8000228F5D9032081E1774A136843F4803395
:1010B8001360B5E7744B1A6842F480221A601A6804
:1010C80042F480321A60ABE7FFF7FEFD05466E4B2F
:1010D8001B6813F4003FC3D0FFF7F6FD401B6428DC
:1010E800F5D9032062E1684B5B6813F4800FC6D121
:1010F800654B1B6813F0020F04D0E368012B01D085
:10110800012053E1604A136823F0F803216943EA98
:10111800C1031360236813F0080F40D0636963B3F9
:101128005B4B01221A60FFF7CFFD0546564B5B6FFC
:1011380013F0020F33D1FFF7C7FD401B0228F5D982
:10114800032033E1504A136823F0F803216943EA86
:10115800C1031360DEE74D4B00221A60FFF7B4FDB0
:101168000546494B1B6813F0020FD3D0FFF7ACFDBF
:10117800401B0228F5D9032018E1454B00221A60CC
:10118800FFF7A2FD0546404B5B6F13F0020F06D038
:10119800FFF79AFD401B0228F5D9032006E12368D2
:1011A80013F0040F79D0384B1B6C13F0805F33D1E8
:1011B80000230193344B1A6C42F080521A641B6C62
:1011C80003F080530193019B0125324B1B6813F4F4
:1011D800807F23D0A368012B34D0052B38D02A4B2D
:1011E8001A6F22F001021A671A6F22F004021A67B6
:1011F800A368002B36D0FFF767FD0646224B1B6F0E
:1012080013F0020F48D1FFF75FFD801B41F28833CE
:101218009842F3D90320C9E00025D6E71D4A136890
:1012280043F480731360FFF74FFD0646194B1B68A4
:1012380013F4807FCED1FFF747FD801B0228F5D934
:101248000320B3E0104A136F43F001031367CFE79D
:101258000D4B1A6F42F004021A671A6F42F001022E
:101268001A67C5E7FFF730FD0646074B1B6F13F0FB
:10127800020F11D0FFF728FD801B41F288339842F6
:10128800F3D9032092E000BF003802400000474233
:10129800800E474200700040EDB9A369002B00F0B2
:1012A8008480454A926802F00C02082A51D0022B29
:1012B80017D0424B00221A60FFF706FD04463E4B4A
:1012C8001B6813F0007F42D0FFF7FEFC001B0228CA
:1012D800F5D903206AE0384A136C23F0805313646D
:1012E800DBE7364B00221A60FFF7EEFC0546324B6F
:1012F8001B6813F0007F06D0FFF7E6FC401B0228AE
:10130800F5D9032052E0E369226A1343626A43EA8B
:101318008213A26A5208013A43EA0243E26A43EAA4
:101328000263254A5360254B01221A60FFF7CCFC63
:101338000446214B1B6813F0007F06D1FFF7C4FC5D
:10134800001B0228F5D9032030E000202EE0002001
:101358002CE0012B2CD0184B5B6803F48001E26968
:10136800914201D0012021E003F03F02216A8A4224
:1013780001D001201AE0616A47F6C0721A408A4219
:1013880001D0012012E003F44032A16A8A4201D060
:1013980001200BE003F07063E26A93420AD0012057
:1013A80004E001207047012000E0002002B070BD79
:1013B8000120FBE70020F9E70038024060004742BF
:1013C800264B9B6803F00C03042B44D0082B01D058
:1013D800234870472DE9F04B204B5A6802F03F0232
:1013E8005B6813F4800F13D01C4B5968C1F3881144
:1013F80000231C48A1FB0001FEF7E2FE174B5B68C7
:10140800C3F3014301335B00B0FBF3F0BDE8F08B9D
:10141800124B5B68C3F388131E4600275C01002546
:10142800E41A65EB0705A90141EA9461A001001BD4
:1014380061EB0501CB0043EA5073C400A01943EBEC
:1014480007018B0243EA9053840220461946002381
:10145800FEF7B6FED2E70348704700BF00380240E7
:101468000024F40040787D01002800F09E8070B5CB
:101478000446504B1B6803F00F038B4209D2CBB2D2
:101488004C4A1370136803F00F038B4201D00120FC
:1014980070BD236813F0020F17D013F0040F04D0A7
:1014A800454A936843F4E0539360236813F0080FA8
:1014B80004D0414A936843F4604393603E4A93687A
:1014C80023F0F003A068034393600D46236813F0EC
:1014D800010F32D06368012B21D09A1E012A25D929
:1014E800354A126812F0020F61D033498A6822F037
:1014F800030213438B60FFF7E7FB06462E4B9B68FE
:1015080003F00C036268B3EB820F16D0FFF7DCFB25
:10151800801B41F288339842F0D90320B8E7264A65
:10152800126812F4003FE0D10120B1E7224A1268A4
:1015380012F0007FD9D10120AAE71E4B1B6803F0E7
:101548000F03AB4209D9EAB21A4B1A701B6803F0B1
:101558000F03AB4201D001209AE7236813F0040F70
:1015680006D0154A936823F4E053E1680B4393606F
:10157800236813F0080F07D00F4A936823F46043D9
:10158800216943EAC1039360FFF71AFF0A4B9B687E
:10159800C3F30313094AD35CD840094B1860094BBD
:1015A8001868FFF747FB002072E701207047012009
:1015B8006EE700BF003C024000380240C02200082D
:1015C8000000002008000020014B1868704700BF89
:1015D8000000002008B5FFF7F7FF044B9B68C3F332
:1015E8008223034AD35CD84008BD00BF00380240BC
:1015F800D022000808B5FFF7E7FF044B9B68C3F348
:101608004233034AD35CD84008BD00BF00380240CB
:10161800D0220008F8B505460F4616461C462B682A
:101628009B6837EA03030CBF01230023B34237D07A
:10163800B4F1FF3FF3D0FFF747FB069BC01AA04267
:1016480001D2002CEBD12A68536823F0E0035360E1
:101658006B68B3F5827F0BD0AB6AB3F5005F14D02B
:10166800012385F85130002385F85030032018E015
:10167800AB68B3F5004F02D0B3F5806FECD12A68A0
:10168800136823F040031360E6E72A68136823F41D
:10169800005313602A68136843F400531360DFE7AC
:1016A8000020F8BD30B585B0164C2468164DA5FB52
:1016B8000434640D4FF47A7505FB04F4039444680C
:1016C800B4F5827F0BD0039BC3B1039B013B03930B
:1016D80003689B6813F0800FF5D100230FE00B46D9
:1016E8000446009200228021FFF794FF034630B1A0
:1016F800636D43F020036365032300E0002318466D
:1017080005B030BD00000020819F5E1610B582B084
:1017180004464068B0F5827F16D06068B0F5827FD5
:101728002ED1A368B3F5806F1BD000920B46002220
:1017380080212046FFF76EFF034650B3636D43F0E8
:1017480020036365032324E0A368B3F5004F02D0A8
:10175800B3F5806FE1D12068036823F0400303608C
:10176800DBE700920B46002201212046FFF752FFDB
:10177800034670B1636D43F020036365032308E0FB
:1017880000920B46002201212046FFF743FF034643
:1017980010B9184602B010BD636D43F020036365AD
:1017A8000323F6E700283BD010B5044600238362E4
:1017B80090F85130002B2ED0022384F85130226843
:1017C800136823F0400313606368A2681343E26858
:1017D80013432269134362691343A26902F4007236
:1017E8001343E2691343226A1343A16A22680B4335
:1017F8001360638B03F00403616A22680B43536030
:101808002268D36923F40063D36100206065012353
:1018180084F8513010BD80F85030FEF78BFFCBE7CD
:10182800012070472DE9F04182B090F85040012C1A
:1018380000F0C3801D46174688460446012380F8F9
:101848005030FFF741FA064694F85130DBB2012BCD
:1018580009D00220012384F85130002384F8503045
:1018680002B0BDE8F081B8F1000F00F09880002FB9
:1018780000F09780032384F8513000236365C4F88F
:101888003080A786E786A363A387E387636423641E
:10189800A368B3F5004F1CD023681A6812F0400FF4
:1018A80003D11A6842F040021A60E368B3F5006F8A
:1018B80015D063680BB1012F49D1226B23681278C8
:1018C8001A73236B01332363E38E013B9BB2E386D8
:1018D8003DE02268136843F480431360DCE76368E3
:1018E8000BB1012F15D1226B23681288DA60236BA4
:1018F80002332363E38E013B9BB2E38609E0FFF7E3
:10190800E3F9801BA84202D3B5F1FF3F4BD1002D6C
:101918004BD0E38E9BB2002B2CD023689A6812F030
:10192800020FECD0226B1288DA60236B0233236338
:10193800E38E013B9BB2E386EBE7FFF7C5F9801B1B
:10194800A84202D3B5F1FF3F31D1002D31D0E38E4B
:101958009BB27BB123689A6812F0020FEDD0226B1C
:1019680012781A73236B01332363E38E013B9BB216
:10197800E386ECE7324629462046FFF793FE08B196
:1019880020236365A36833B901932368DA68019259
:101998009B680193019B636D6BB900205AE7012096
:1019A80058E7012056E7032054E7032052E70320B5
:1019B80050E703204EE701204CE7022050E72DE9CD
:1019C800F04383B0DDF8288090F85040012C00F0F7
:1019D8000B811D4617460E460446012380F85030F9
:1019E800FFF772F9814694F85100C0B26368012884
:1019F80015D0B3F5827F0AD00223012284F8512042
:101A0800002284F85020184603B0BDE8F083A3688C
:101A1800002B40F0DB80042801D00223EDE7002EE4
:101A280000F0D680002F00F0D580002D00F0D48083
:101A380094F85130DBB2042B02D0052384F85130DE
:101A480000236365A763E587A5872663E586A586E2
:101A58002364636423681A6812F0400F03D11A687C
:101A680042F040021A60E368B3F5006F10D0636873
:101A78000BB1012D0AD1226B236812781A73236BDC
:101A880001332363E38E013B9BB2E386012569E0C2
:101A980063680BB1012D0AD1226B23681288DA60C2
:101AA800236B02332363E38E013B9BB2E38601255C
:101AB8001BE023689A6812F0010F0DD0E28F92B2F2
:101AC80052B1DA68A36B1A80A36B0233A363E38F66
:101AD800013B9BB2E3870125FFF7F6F8A0EB09006D
:101AE800404502D3B8F1FF3F78D1E38E9BB21BB9D2
:101AF800E38F9BB2002B52D023689A6812F0020F32
:101B0800D7D0E28E92B2002AD3D0002DD1D0226B4A
:101B18001288DA60236B02332363E38E013B9BB2A6
:101B2800E3860025C5E723689A6812F0010F0DD0F7
:101B3800E28F92B252B1DA68A36B1A70A36B0133C9
:101B4800A363E38F013B9BB2E3870125FFF7BCF852
:101B5800A0EB0900404502D3B8F1FF3F40D1B8F1EE
:101B6800000F3FD0E38E9BB213B9E38F9BB2B3B1A2
:101B780023689A6812F0020FD5D0E28E92B2002A3A
:101B8800D1D0002DCFD0226B12781A73236B01337A
:101B98002363E38E013B9BB2E3860025C3E74A46F5
:101BA80041462046FFF77EFD034618B120236365B2
:101BB800012322E7A268002A7FF41FAF019222685E
:101BC800D168019192680192019A16E7022314E7FD
:101BD800012312E7012310E701230EE703230CE793
:101BE80003230AE7032308E702230CE72DE9F04162
:101BF80082B004460F4690461D464368B3F5827F7F
:101C080019D094F85030012B00F09F80012384F8FC
:101C18005030FFF759F8064694F85130DBB2012BE3
:101C280015D00220012384F85130002384F8503065
:101C380002B0BDE8F0818368002BE2D1042380F86C
:101C48005130009513460A46FFF7B9FEF0E7002F1A
:101C58006DD0B8F1000F6CD0042384F85130002304
:101C68006365A763A4F83C80A4F83E802363A38639
:101C7800E38623646364A368B3F5004F0BD023683D
:101C88001A6812F0400F03D11A6842F040021A6035
:101C9800E36883B12CE02268136823F4804313605F
:101CA800EDE7FFF711F8801BA84202D3B5F1FF3F1B
:101CB80041D1002D41D0E38F9BB2002B2BD023685C
:101CC8009A6812F0010FECD0A26B1B7B1370A36B08
:101CD8000133A363E38F013B9BB2E387EBE7FEF796
:101CE800F3FF801BA84202D3B5F1FF3F27D145B3CC
:101CF800E38F9BB27BB123689A6812F0010FEED094
:101D0800DA68A36B1A80A36B0233A363E38F013BEA
:101D18009BB2E387ECE7324629462046FFF7F6FCFC
:101D280008B120236365636D6BB900207AE7012051
:101D380078E7012076E7032074E7032072E70320A1
:101D480070E703206EE701206CE7022070E70000CF
:101D58002DE9F04B04460268136923F44053C16827
:101D68000B43136183680269134342691343C269D1
:101D78001A430168CB6823F4164323F00C0313437A
:101D8800CB600268536923F4407381690B43536144
:101D9800C369B3F5004F3BD00368714A934200F022
:101DA800AB8002F58062934200F0A680FFF712FC38
:101DB8004FF00009061849EB090716EB000B47EB33
:101DC800090C4FEACC0343EA5B734FEACB02934614
:101DD8009C4663689A009B0F10EB0B0049EB0C01C3
:101DE800FEF7EEF95F4DA5FB00325109642202FBB4
:101DF800110213013233A5FB03235B0903F0F00240
:101E080002EB011203F00F03216813448B60A4E076
:101E18000368534A934239D002F58062934235D021
:101E2800FFF7D8FB83464FF0000C06184CEB0C0765
:101E380016EB000847EB0C094FEAC90343EA58734D
:101E48004FEAC8029046994662680021921841EB11
:101E580001031BEB08004CEB0901FEF7B1F9414DFA
:101E6800A5FB00325109642202FB1102D300323370
:101E7800A5FB03235B095A0002F4F87202EB011276
:101E880003F00703216813448B6066E0FFF7B2FB99
:101E980080464FF00009061849EB090716EB000BBE
:101EA80047EB090C4FEACC0343EA5B734FEACB02DA
:101EB80093469C4662680021921841EB010318EB97
:101EC8000B0049EB0C01FEF77BF9264DA5FB003210
:101ED8005109642202FB1102D3003233A5FB03230C
:101EE8005B095A0002F4F87202EB011203F00703CF
:101EF800216813448B6030E0FFF77CFB4FF000094A
:101F0800061849EB090716EB000B47EB090C4FEADB
:101F1800CC0343EA5B734FEACB0293469C46636863
:101F28009A009B0F10EB0B0049EB0C01FEF748F9E8
:101F38000C4DA5FB00325109642202FB110213016A
:101F48003233A5FB03235B0903F0F00202EB011215
:101F580003F00F03216813448B60BDE8F08B00BFCA
:101F6800001001401F85EB512DE9F04105460F4651
:101F780016469846069C2B681B6837EA03030CBF75
:101F880001230023B3421DD1B4F1FF3FF3D02CB19C
:101F9800FEF79AFEA0EB0800A042ECD92A68D368A5
:101FA80023F4D073D3602A68536923F00103536183
:101FB800202385F8393085F83A30002385F8383001
:101FC800032000E00020BDE8F08158B310B50446B6
:101FD80090F839300BB3242384F839302268D36859
:101FE80023F40053D3602046FFF7B2FE226813693A
:101FF80023F4904313612268536923F02A03536141
:102008002268D36843F40053D3600020E0632023A0
:1020180084F8393084F83A3010BD80F83830FEF74B
:10202800D1FDD8E7012070472DE9F04383B01E4663
:1020380090F83930DBB2202B56D104460D46904635
:10204800002956D0002A56D090F83830012B54D0A9
:10205800012380F838304FF00009C0F83C90212364
:1020680080F83930FEF730FE0746A4F82480A4F83B
:10207800268084F8389010E000963B4600228021A4
:102088002046FFF771FF002839D12B882268C3F357
:10209800080353602369C3B90235E38C9BB2B3B11B
:1020A800E38C013B9BB2E384A368B3F5805FE3D084
:1020B80000963B46002280212046FFF755FF00BBD3
:1020C8002A7823685A600135E7E70135E5E7009685
:1020D8003B46002240212046FFF746FF034690B9C1
:1020E800202284F8392000E00223184603B0BDE816
:1020F800F0830123F9E70123F7E70223F5E7032338
:10210800F3E70323F1E70323EFE72DE9F04383B077
:102118001E4690F83A30DBB2202B5CD104460D46BF
:10212800904600295BD0002A5BD090F83830012B0C
:1021380059D0012380F838304FF00009C0F83C909E
:10214800222380F83A30FEF7BFFD0746A4F82C801A
:10215800A4F82E8084F838901DE000963B460022B3
:1021680020212046FFF700FF00283ED1236933B91C
:1021780023685B68C3F3080325F8023B0BE0236878
:102188005B68DBB225F8013B05E023685B6803F078
:102198007F032B700135E38D9BB2BBB1E38D013B0F
:1021A8009BB2E385A368B3F5805FD6D000963B4623
:1021B800002220212046FFF7D7FEC0B92369002B53
:1021C800E3D123685B682B700135E4E7202384F8AA
:1021D8003A30002000E0022003B0BDE8F08301207F
:1021E800FAE70120F8E70220F6E70320F4E70320E6
:1021F800F2E70000DFF834D0002103E00C4B5B5815
:10220800435004310B480C4B42189A42F6D30B4A00
:1022180002E0002342F8043B094B9A42F9D3FEF747
:10222800A9FC00F011F8FEF7E9F970470000022058
:10223800E8220008000000200C0000200C0000200C
:10224800EC000020FEE7000070B50D4E0D4CA41BFD
:10225800A4100025A54209D10B4E0C4C00F020F823
:10226800A41BA4100025A54205D170BD56F8253041
:1022780098470135EEE756F8253098470135F2E7DB
:10228800E0220008E0220008E0220008E42200081A
:1022980002440346934200D1704703F8011BF9E753
:1022A800F8B500BFF8BC08BC9E467047F8B500BF3B
:0822B800F8BC08BC9E4670470B
:1022C00000000000000000000102030406070809E6
:0822D0000000000001020304FC
:0822D80020DFFF7F0100000080
:0422E000AD01000844
:0422E4008901000864
:0C22E8000024F4000100000010000000C1
:04000005080021FDD1
:00000001FF
